:020000040800F2
:10000000E80B0020910F00083502000837020008B5
:100010003B0200083F020008430200080000000005
:10002000000000000000000000000000470200087F
:1000300049020008000000004B0200084D020008C1
:10004000AB0F0008AB0F0008AB0F0008AB0F0008A8
:10005000AB0F0008AB0F0008AB0F0008AB0F000898
:10006000AB0F0008AB0F0008AB0F0008AB0F000888
:10007000AB0F0008AB0F0008AB0F0008AB0F000878
:10008000AB0F0008AB0F0008AB0F0008AB0F000868
:10009000AB0F0008AB0F0008AB0F0008AB0F000858
:1000A000AB0F0008AB0F0008AB0F0008AB0F000848
:1000B000AB0F000845070008AB0F0008AB0F0008A6
:1000C000AB0F0008AB0F0008AB0F0008AB0F000828
:1000D000AB0F0008C30E0008AB0F0008AB0F000801
:1000E000AB0F0008AB0F0008AB0F0008AB0F000808
:1000F000AB0F0008AB0F0008AB0F0008AB0F0008F8
:10010000AB0F0008AB0F0008AB0F0008AB0F0008E7
:10011000AB0F0008AB0F0008AB0F0008AB0F0008D7
:10012000AB0F0008AB0F0008AB0F0008AB0F0008C7
:1001300000F002F800F03FF80AA090E8000C8244BA
:100140008344AAF10107DA4501D100F034F8AFF297
:10015000090EBAE80F0013F0010F18BFFB1A43F0A5
:10016000010318473C3B00005C3B0000103A24BFF1
:1001700078C878C1FAD8520724BF30C830C144BF0C
:1001800004680C607047000000230024002500264E
:10019000103A28BF78C1FBD8520728BF30C148BFEA
:1001A0000B607047642902F04F84002070471FB530
:1001B0001FBD10B510BD02F0B6FD1146FFF7F7FFE9
:1001C00000F008F802F0D4FD03B4FFF7F2FF03BC1F
:1001D00000F01CFE4FF4A06001F07EFC00F0ACFDCE
:1001E0004FF4E13000F021FE00F022F900F00EFDA6
:1001F00000F0E3FB00F0DDFA00231A464FF08041E7
:100200000A4800F085FB00231A464FF08241084857
:1002100000F07EFB002142F20F7000F025F947212B
:1002200041F2873000F070F900BFFEE77000002057
:1002300098000020704700BFFEE700BFFEE700BF48
:10024000FEE700BFFEE77047704770477047000049
:100250000CB50020019000906C48006840F480309C
:100260006A49086000BF6948006800F400300090E7
:100270000198401C0190009818B90198B0F5A06F42
:10028000F1D16248006800F4003010B10120009004
:1002900001E0002000900098012843D15C480068EC
:1002A00040F010005A4908600846006820F003003A
:1002B00008600846006840F0020008605348406843
:1002C000524948600846406848600846406840F423
:1002D000806048600846406820F47C10486008460A
:1002E000406840F4E81048600846006840F08070BC
:1002F000086000BF4548006800F000700028F9D091
:100300004248406820F00300404948600846406881
:1003100040F00200486000BF3C48406800F00C001C
:100320000828F9D10CBD10B5FFF792FF10BD10B52C
:100330003648006840F001003449086008464068CB
:10034000344908403149486008460068324908404D
:100350002E4908600846006820F48020086008469E
:10036000406820F4FE0048604FF41F008860FFF7EB
:10037000DAFF4FF000602949086010BD10B5002178
:1003800000200022214B5B6803F00C0121B10429FD
:1003900006D0082928D107E0214B224C236027E012
:1003A0001F4B204C236023E0184B5B6803F4701054
:1003B000164B5B6803F48032022303EB904022B9B2
:1003C000194B4343174C23600DE0104B5B6803F45B
:1003D000003323B1144B4343124C236003E0104B12
:1003E0004343104C236003E00D4B0E4C236000BFD1
:1003F00000BF064B5B68C3F303130C4CE15C094B75
:100400001B68CB40074C236010BD00000010024069
:10041000002002400000FFF8FFFFF6FE08ED00E0BC
:1004200000127A000000002000093D0004000020B6
:1004300008B50121102001F0E7F84FF40050ADF8A5
:10044000000010208DF8030003208DF8020069469B
:10045000044800F01DFE4FF40051024800F0C5FEB4
:1004600008BD00000010014030B589B005460C46BB
:100470000121082001F0D5F80121042001F0C4F881
:100480000320ADF8200018208DF8230003208DF8FC
:10049000220008A91A4800F0FBFDADF81850ADF88D
:1004A00014400020ADF81A00ADF8160005A9154853
:1004B00001F054FC7020ADF804000120ADF80600F6
:1004C0000020ADF80A000220ADF80C0001A90D488B
:1004D00001F081FC01A90B4801F0BFFC082109488B
:1004E00002F0C8F80821074802F0CDF801210548BC
:1004F00002F090F80121034801F08CFF09B030BDF3
:1005000000080140000C00407FB505460C46012163
:10051000022001F086F8ADF80850ADF80440002044
:10052000ADF80A00ADF8060001A9BD4801F016FCBF
:1005300001221146BA4801F088FF1D208DF8000005
:1005400001208DF8010003208DF8020001208DF8B4
:100550000300684601F0C5FA0121B14801F05AFFD5
:100560007FBD4A1E91B203E0002242544A1E91B25E
:100570000029F9DC704770B50446AA49204602F00C
:10058000DCFDA9490860A949204602F003FCA849FE
:100590000860A849A448006802F09EFD03D2A5485F
:1005A000A149086008E0A4499F48006802F094FC53
:1005B00002D2A1489C4908609E499D48006802F00B
:1005C0008BFD03D29B489A49086008E09A499848F5
:1005D000006802F081FC02D2974895490860924871
:1005E000006802F045FC85B22946944802F0AAF959
:1005F0008F48006802F03CFC85B229468F4802F023
:10060000A3F970BD10B58AB08D48006802F04CFCAB
:1006100004468C488C4909681822CDE906140890D4
:100620008A49684602F0D3FA884810380FC800F0AB
:100630002DF98748006802F037FC04468548814957
:1006400009681822CDE9061408908349684602F02B
:10065000BEFA814810380FC800F018F97D480068CC
:10066000FFF789FF0AB010BD10B57C48008800F480
:100670000040002865D00120794908707948007849
:10068000AA2855D177484078FF2851D16C48006896
:10069000754908606E480068744908607148C07800
:1006A0007049897840EA0120694908606D484079BD
:1006B0006C49097940EA0120614908606448006892
:1006C000B0F5004F05DB624800686949084360499E
:1006D00008605B480068B0F5004F05DB58480068CB
:1006E0006349084356490860554800685E490968EF
:1006F000401A322806DC5C48006851490968401AF3
:10070000322803DD584800684D49086050480068A9
:1007100056490968401A322806DC544800684C499A
:100720000968401A322803DD5048006848490860CB
:1007300000204A490880012240F225514D4801F02D
:10074000A2F810BD10B50121354802F02CF958B3BC
:10075000FFF78AFFFFF756FF14214748FFF701FF15
:100760003B4846A10268444802F032F9424A00215F
:10077000502000F029FA14213F48FFF7F2FE3048DC
:100780003EA102683C4802F023F93B4A1021502068
:1007900000F01AFA00F0EEF83948006808B90120B4
:1007A00000E000203649086001211D4802F00CF9E4
:1007B00010BD08B50121282000F026FF3820ADF833
:1007C000000010208DF8030003208DF80200694618
:1007D0002C4800F05DFC0420ADF8000010208DF8DE
:1007E000030003208DF802006946274800F050FC02
:1007F0000421254800F0F9FC1021224800F0F5FC06
:100800002821204800F0F3FC08BD10B500210B485A
:1008100002F098F841F6CA41084802F095F810BD78
:100820000004004000C0DA453000002000C0E4456C
:1008300034000020003C1C4600007A44000C0040BC
:100840001400002028000020240000208000002048
:10085000180000202C000020A800002044000020E8
:1008600038000020C00400201C00002020000020D0
:100870000000FFFF003801405C00002025366400C6
:10088000B4012242000C0140001401400FB42DE9D4
:10089000F04110AC70CC069807902946204602F033
:1008A00057FC06900699089802F074FA08901A49C5
:1008B000089802F011FC02D21748089006E0174988
:1008C000089802F009FB01D214480890069909988B
:1008D00002F036FB0C9008990A9802F031FB0D905B
:1008E000DDE9060102F034FC07460B9902F028FB13
:1008F0000E90DDE90C0102F04DFA07460E9902F068
:1009000049FA0F900F983060BDE8F0015DF814FBD4
:10091000C1600261436170470000FA430000FAC3FE
:1009200010B50A461AB10123FD4C236002E00023F2
:10093000FB4C2360002117E00023F94C143C23609A
:1009400000F0800323B10123F54C0C3C236003E04D
:100950000023F34C0C3C23600123F14C143C236036
:100960004306180E4B1CD9B20829E5DB0123EC4CD9
:10097000236010BD30B500241CE004F1B001C8B202
:100980000021FFF7CDFF00210846FFF7C9FF002136
:100990001020FFF7C5FF002508E0E24901EBC50183
:1009A000085D0121FFF7BCFF681CC5B2802DF4DB98
:1009B000601CC4B2082CE0DB30BD00B500218D20E6
:1009C000FFF7AEFF00211420FFF7AAFF0021AF20A0
:1009D000FFF7A6FF00BD00B500218D20FFF7A0FFA7
:1009E00000211020FFF79CFF0021AE20FFF798FFA9
:1009F00000BD30B500240CE0002506E00020C94908
:100A000001EBC5010855681CC5B2802DF6DB601CE2
:100A1000C4B2082CF0DBFFF7ADFF30BDF0B51446D3
:100A200000267F2801DC3F2900DDF0BD0B46CF17F3
:100A300001EB5777FF10C7F10707FAB2CF1701EBA9
:100A40005777FF10A1EBC707FDB2C5F107070123D8
:100A5000BB40DEB24CB1B34B03EBC0039B5C3343F2
:100A6000B04F07EBC007BB5408E0AE4B03EBC0032D
:100A70009B5CB343AB4F07EBC007BB5400BFD4E74D
:100A80002DE9F04F80460C4615461E46A346A5F1BB
:100A90002000C5B200273EE00C2E07D105EB450033
:100AA000A14901EB800010F8079004E09F4800EB9B
:100AB000051010F807904FF0000A26E009F08000BA
:100AC00028B121464046099AFFF7A8FF09E0099896
:100AD00008B9012000E00020024621464046FFF709
:100AE0009DFF4FEA49604FEA1069601CC4B2A4EB55
:100AF0000B00B04205D15C4608F1010000F0FF0890
:100B000006E00AF1010000F0FF0ABAF1080FD5DB98
:100B100000BF781CC7B2B742BEDBBDE8F08F10B58E
:100B20000246012000E050430B00A1F10104E1B2B4
:100B3000F9D110BD2DE9FF4F81B0074691461E4601
:100B40000E9D4FF0000A002439E0301B401EC1B258
:100B50000A20FFF7E4FFB9FBF0F00A21B0FBF1F245
:100B600001FB1208BAF1000F16D1701EA04213DD6E
:100B7000B8F1000F0ED10120AB4605EBDB71491037
:100B800001FB04710090C8B22B4620220299FFF7A6
:100B900077FF12E04FF0010A0120AB4605EBDB7155
:100BA000491001FB04710090C8B208F13001CAB2CB
:100BB0002B460299FFF764FF00BF601CC4B2B44229
:100BC000C3DB05B0BDE8F08F78B505460E46144688
:100BD00018E07A2D03DD002506F11000C6B23A2E8A
:100BE00004DD002005460646FFF703FF01200090C4
:100BF0002278102331462846FFF742FF05F108000E
:100C0000C5B2641C20780028E3D178BD08B5012165
:100C1000082000F0F9FC4FF47440ADF800001020FB
:100C20008DF8030003208DF802006946404800F06B
:100C30002FFA4FF474413E4800F0D9FA00203849A9
:100C4000091F0860642000F0B4F801203949C1F898
:100C5000B8010021AE20FFF763FE0021D520FFF789
:100C60005FFE00215020FFF75BFE0021A820FFF768
:100C700057FE00213F20FFF753FE0021D320FFF74E
:100C80004FFE00210846FFF74BFE00214020FFF7F2
:100C900047FE00218D20FFF743FE00211420FFF7BF
:100CA0003FFE00212020FFF73BFE00210220FFF73E
:100CB00037FE0021A120FFF733FE0021C020FFF7FF
:100CC0002FFE0021DA20FFF72BFE00211220FFF774
:100CD00027FE00218120FFF723FE0021EF20FFF7F0
:100CE0001FFE0021D920FFF71BFE0021F120FFF796
:100CF00017FE0021DB20FFF713FE00213020FFF755
:100D00000FFE0021A420FFF70BFE0021A620FFF715
:100D100007FE0021AF20FFF703FEFFF76AFE08BDC4
:100D2000BC812142C00000203A320008AE360008E3
:100D3000000C01400080214210B56FF0040000F06B
:100D40001AFF2E4800682E49B0FBF1F02D490870BB
:100D50000846007800EB4001C1EBC0104FF6FF7170
:100D600001EAC0002849088010BD0146254A1278D2
:100D70004A434FF0E0235A6100229A611A461269F1
:100D800042F001021A6100BF4FF0E022106900F04A
:100D900001021AB100F48032002AF5D04FF0E022AF
:100DA000126922F001024FF0E0231A6100229A61D9
:100DB00070470146144A12884A434FF0E0235A61B3
:100DC00000229A611A46126942F001021A6100BFBC
:100DD0004FF0E022106900F001021AB100F48032F5
:100DE000002AF5D04FF0E022126922F001024FF004
:100DF000E0231A6100229A61704700000000002081
:100E000000127A003A0000203C000020014600BF9A
:100E1000704700BF5A4A128802F04002002AF9D0F7
:100E2000C2B2574B1B1D1A80704710B586B00446DE
:100E3000012144F2040000F0E7FB4FF40070ADF82C
:100E4000140003208DF8160018208DF8170005A94E
:100E50004C4800F01DF94FF48060ADF814000420F8
:100E60008DF8170005A9474800F012F925208DF8E4
:100E7000000000208DF801008DF8020001208DF89F
:100E80000300684600F02DFE01940020ADF8080034
:100E9000ADF80A00ADF80C00ADF810000C20ADF86C
:100EA0000E0001A9364800F056FC012240F22551FF
:100EB000334800F0E8FC0121314800F0D8FC06B0CE
:100EC00010BD10B540F225512D4800F0C1FD00289D
:100ED00054D02B4800F03CFDC4B2AA2C03D02A48C1
:100EE000008800B910BDFF2C07D0274800880128D2
:100EF00003D1002024490880F4E70D2C07D02248B4
:100F00000088062803D100201F490880EAE71E4810
:100F1000008800F40040F8B91B48008800F48040C5
:100F200090B10A2C03D000201749088026E016480B
:100F3000008840F4004014490880002240F2255106
:100F40000F4800F0A0FC19E00D2C06D10E480088D7
:100F500040F480400C49088010E00B480088C0F342
:100F60000D000A490C5408480088401C06490880B6
:100F700008460088C72801DD0020088000BFB1E7CF
:100F8000003801400008014044000020C004002057
:100F90000948804709480047FEE7FEE7FEE7FEE70D
:100FA000FEE7FEE7FEE7FEE7FEE7FEE70448054949
:100FB000054A064B704700002F0300083101000866
:100FC000E8050020E80B0020E8070020E8070020E3
:100FD00010B50446CC48844208D10121042000F019
:100FE0002DFB0021042000F029FB46E0C748844285
:100FF00008D10121082000F021FB0021082000F089
:101000001DFB3AE0C248844208D10121102000F0C3
:1010100015FB0021102000F011FB2EE0BD4884429A
:1010200008D10121202000F009FB0021202000F040
:1010300005FB22E0B848844208D10121402000F09D
:10104000FDFA0021402000F0F9FA16E0B34884428E
:1010500008D10121802000F0F1FA0021802000F069
:10106000EDFA0AE0AE48844207D10121801500F074
:10107000E5FA0021A01500F0E1FA10BD10B501213C
:10108000084600F0DBFA0021012000F0D7FA10BD7D
:101090002DE9F0410246002500260020002300240F
:1010A000002791F803C00CF00F0591F803C00CF075
:1010B000100CBCF1000F03D091F802C04CEA0505FA
:1010C00091F800C0BCF1000F31D0146800202BE073
:1010D0004FF0010C0CFA00F3B1F800C00CEA030663
:1010E0009E4220D183004FF00F0C0CFA03F7BC4353
:1010F00005FA03FC4CEA040491F803C0BCF1280F84
:1011000006D14FF0010C0CFA00FCC2F814C00AE042
:1011100091F803C0BCF1480F05D14FF0010C0CFA57
:1011200000FCC2F810C0401C0828D1D31460B1F8EC
:1011300000C0BCF1FF0F34DD546800202EE000F148
:10114000080C4FF0010808FA0CF3B1F800C00CEAE3
:1011500003069E4221D183004FF00F0C0CFA03F7D7
:10116000BC4305FA03FC4CEA040491F803C0BCF14B
:10117000280F05D100F1080C08FA0CF8C2F8148009
:1011800091F803C0BCF1480F07D100F1080C4FF0F3
:10119000010808FA0CF8C2F81080401C0828CED3C9
:1011A0005460BDE8F0814FF6FF710180022181702B
:1011B0000421C17070470246002093680B400BB1B8
:1011C000012000E0002070470146886880B2704727
:1011D00002460020D3680B400BB1012000E0002044
:1011E00070470146C86880B270470161704741612D
:1011F00070470AB1016100E041617047C16070470A
:101200004FF480320A43826181618261826982691E
:10121000704702460020434B18684FF68073184011
:1012200040EA021008433F4B186070473E49C861CE
:101230007047F0B50A46002300240021002500F085
:101240000046B6F1004F02D1364EF16901E0354E4D
:101250007168C0F3034583B200F44016B6F5401F31
:1012600008D121F070612F4E766826F070662D4F00
:101270007E6012E000F48016B6F5801F06D10326CA
:1012800006FA05F4A14341F0706106E0460D36010F
:1012900003FA06F6B14341F0706122B1460D360102
:1012A00003FA06F6314300F00046B6F1004F02D1D2
:1012B0001C4EF16101E01B4E7160F0BD30B50022A3
:1012C0008B071C0F0F2303FA04F2164B08338C1004
:1012D00053F824309343134C08348D1044F82530D0
:1012E00023468C1053F824308C07240F00FA04F4A2
:1012F00023430C4C08348D1044F8253030BD0A4986
:10130000DC3108607047000000080140000C01401B
:10131000001001400014014000180140001C014071
:10132000002001400000014000002042DF4800682A
:1013300040F00100DD49086008464068DC4908408B
:10134000DA49486008460068DA490840D749086029
:101350000846006820F4802008600846406820F4B1
:10136000FE0048604FF41F0088607047CF4909684D
:1013700021F48031CD4A11601146096821F48021A1
:101380001160B0F5803F03D0B0F5802F0ED106E09C
:10139000C649096841F48031C44A116007E0C34975
:1013A000096841F4A021C14A116000E000BF00BFFC
:1013B000704710B501460022002300204A11012A7F
:1013C00002D1BA4C236806E0022A02D1B74C236A44
:1013D00001E0B64C636A01F01F02012494401C40F6
:1013E0000CB1012000E0002010BD38B500200090B5
:1013F0000024002500BF3120FFF7DBFF05460098E1
:10140000401C00900098B0F5A06F01D0002DF2D0E4
:101410003120FFF7CEFF08B1012400E00024204670
:1014200038BD01460020A14A106820F0F80040EACB
:10143000C10010607047A049086070470246002054
:101440009A4B586820F47C1042EA01031843974BEA
:101450005860704798490866704701460020934AD3
:10146000506820F003000843506070478F48406880
:1014700000F00C007047014600208C4A506820F0B4
:10148000F00008435060704701460020874A5068CA
:1014900020F4E06008435060704701460020834A12
:1014A000506820F4605040EAC1005060704729B194
:1014B0007E4A527A02437D4B5A7204E07B4A527A4A
:1014C00082437A4B5A7270477B49D8310860704723
:1014D00001460020754A506820F44040084350609F
:1014E00070470021714A20321170704A82F8201032
:1014F000012802D004280AD104E001216B4A2032DD
:10150000117005E00521694A2032117000E000BF2A
:1015100000BF70476949086070476449096A014320
:10152000624A11627047654944390860704730B5B6
:1015300000210022002400235C4D6D6805F00C01A1
:1015400021B1042905D0082923D105E05C4D0560AF
:1015500022E05B4D05601FE0544D6D6805F470128C
:10156000524D6D6805F48034022505EB92421CB99A
:10157000544D554305600BE04C4D6D6805F4003546
:101580001DB1504D5543056002E04D4D554305607A
:1015900002E04B4D056000BF00BF444D6D6805F093
:1015A000F0010909484D6B5C0568DD4045603F4D21
:1015B0006D6805F4E061090A434D6B5C4568DD40E8
:1015C00085603A4D6D6805F46051C90A3E4D6B5C0B
:1015D0004568DD40C560354D6D6805F44041890BB7
:1015E0003A4D6B5CC568B5FBF3F5056130BD29B1BB
:1015F0002E4A526902432D4B5A6104E02B4A52692C
:1016000082432A4B5A61704729B1284A92690243A2
:10161000264B9A6104E0254A92698243234B9A61E2
:10162000704729B1214AD2690243204BDA6104E0B4
:101630001E4AD26982431D4BDA61704729B11B4AA9
:10164000D2680243194BDA6004E0184AD268824338
:10165000164BDA60704729B1144A12690243134BE2
:101660001A6104E0114A12698243104B1A617047F3
:1016700012494039086070470F49C86470470B49E8
:10168000C87170470948406A40F080700749486255
:10169000704701460020054A92680A400AB10120BD
:1016A00000E0002070470149887270470010024036
:1016B0000000FFF8FFFFF6FE0000424280044242B5
:1016C00000127A0000093D0046000020560000206C
:1016D00010B50446FB48844209D101218803FFF775
:1016E000ADFF00214FF48040FFF7A8FF32E0F6483D
:1016F000844209D101214804FFF7ADFF00214FF4D6
:101700000030FFF7A8FF25E0F048844209D101210D
:101710008804FFF7A0FF00214FF48020FFF79BFF14
:1017200018E0EB48844209D10121C804FFF793FF78
:1017300000214FF40020FFF78EFF0BE0E5488442C4
:1017400008D101210805FFF786FF00214FF4801022
:10175000FFF781FF10BD2DE9F04786B005460E4624
:101760000024A24600BFA1460027B08900B100BFF7
:101770002F462C8A4CF6FF700440F08804432C82DC
:10178000AC894EF6F3100440B08831890843718962
:1017900008430443AC81AC8A4FF6FF400440B08953
:1017A0000443AC8201A8FFF7C2FEC648874202D1BB
:1017B000DDF810A001E0DDF80CA0A88900F40040DD
:1017C00040B10AEBCA0000EB0A1031684900B0FBD7
:1017D000F1F807E00AEBCA0000EB0A103168890053
:1017E000B0FBF1F86420B8FBF0F00401200964219B
:1017F00001FB1089A88900F4004040B1322000EBC1
:10180000C900B0FBF1F000F00700044308E032200B
:1018100000EB09106421B0FBF1F000F00F0004436D
:101820002C8106B0BDE8F0874FF41651016000210D
:101830008180C18001810C2141810021818170471B
:1018400010B502460020108A4FF2FF0318400B88A3
:101850004C8823438C882343CC882343184310822D
:1018600010BD0021018041808180C180704721B17D
:10187000828942F40052828104E082894DF6FF732E
:101880001A4082817047F0B50346002400260025E7
:10189000002040F66A17B94200D100BF1846C1F3D4
:1018A000421401F01F06012707FA06F5012C01D1A9
:1018B0000C3004E0022C01D1103000E014301AB1D9
:1018C00007682F43076002E00768AF430760F0BD79
:1018D0001AB1838A0B43838202E0838A8B4383821B
:1018E0007047028A4FF6F0731A400282028A0A4356
:1018F0000282704782894FF2FF731A408281828987
:101900000A438281704721B1828942F002028281BA
:1019100004E082894FF6FD731A4082817047028A83
:101920004FF6DF731A400282028A0A43028270472E
:1019300021B1028A42F48042028204E0028A4BF61C
:10194000FF731A4002827047C1F308028280704719
:1019500001468888C0F308007047818941F0010181
:1019600081817047028BD2B20283028B42EA01224C
:1019700002837047028B02F47F420283028B0A4388
:101980000283704721B1828A42F02002828204E001
:10199000828A4FF6DF731A408282704721B1828AB1
:1019A00042F01002828204E0828A4FF6EF731A40FE
:1019B0008282704721B1828A42F00802828204E06A
:1019C000828A4FF6F7731A408282704721B182896A
:1019D00042F40042828103E08289C2F30E028281D6
:1019E000704721B1828A42F40062828204E0828AD6
:1019F0004FF2FF731A4082827047828A4FF6FB7360
:101A00001A408282828A0A438282704721B1828A86
:101A100042F00202828204E0828A4FF6FD731A408D
:101A20008282704702460020B1F5007F00D100BFDE
:101A300013880B400BB1012000E00020704701F437
:101A40000072B2F5007F00D100BFCA430280704728
:101A500070B50246002400230025002040F66A16D7
:101A6000B14200D100BFC1F3421501F01F030126AE
:101A700006FA03F3012D02D19689334006E0022DC8
:101A800002D1168A334001E0968A33400C120126B7
:101A900006FA04F41688344013B10CB1012000E0BA
:101AA000002070BD10B50022002340F66A14A14248
:101AB00000D100BF0A1201249440A3B2DC43048089
:101AC00010BD0000003801400044004000480040C4
:101AD000004C00400050004031490143314A116040
:101AE000704770B5002100230F22C47804B32D4C39
:101AF000246804F4E064C4F5E064210AC1F104033D
:101B0000CA40447804FA03F184781440214309015F
:101B1000254C0678A155047804F01F050124AC403B
:101B200005786D11AD0005F1E025C5F8004109E02B
:101B3000047804F01F050124AC401C4D0678761192
:101B400045F8264070BD1A4A0A400243154B1B1F38
:101B50001A60704739B1134A121D12680243114BC3
:101B60001B1D1A6006E00F4A121D126882430D4BBE
:101B70001B1D1A607047042808D14FF0E021096945
:101B800041F004014FF0E022116107E04FF0E02145
:101B9000096921F004014FF0E02211617047000053
:101BA0000000FA050CED00E000E400E080E100E058
:101BB00080FFFF1F10B50446FE48844208D1012172
:101BC000C014FFF73BFD0021E014FFF737FDC4E030
:101BD000B4F1804F08D101210846FFF73CFD0021F8
:101BE0000120FFF738FDB8E0F348844208D1012115
:101BF0000220FFF730FD00210220FFF72CFDACE0B2
:101C0000EE48844208D101210420FFF724FD002181
:101C10000420FFF720FDA0E0E948844208D101211B
:101C20000820FFF718FD00210820FFF714FD94E0BD
:101C3000E448844208D101211020FFF70CFD002167
:101C40001020FFF708FD88E0DF48844208D1012119
:101C50002020FFF700FD00212020FFF7FCFC7CE0A6
:101C6000DA48844208D101214014FFF7E7FC002143
:101C70006014FFF7E3FC70E0D548844209D10121EC
:101C8000C804FFF7DBFC00214FF40020FFF7D6FC6F
:101C900063E0D048844209D101210805FFF7CEFC5A
:101CA00000214FF48010FFF7C9FC56E0CA48844277
:101CB00009D101214805FFF7C1FC00214FF40010B4
:101CC000FFF7BCFC49E0C548844208D1012140200F
:101CD000FFF7C1FC00214020FFF7BDFC3DE0C048FC
:101CE000844208D101218020FFF7B5FC002180202B
:101CF000FFF7B1FC31E0BB48844208D101218015D7
:101D0000FFF7A9FC0021A015FFF7A5FC25E0B648C8
:101D1000844209D101210804FFF790FC00214FF40F
:101D20008030FFF78BFC18E0B048844209D10121D4
:101D30004804FFF783FC00214FF40030FFF77EFCDE
:101D40000BE0AB48844208D101218804FFF776FC00
:101D500000214FF48020FFF771FC10BD00220288A3
:101D6000944B98420ED0994B98420BD0B0F1804FD3
:101D700008D0914B984205D0904B984202D0904B9E
:101D8000984204D14FF68F731A404B881A438D4BFB
:101D9000984207D08C4B984204D04FF6FF431A402C
:101DA000CB881A4302808B8883850B880385814BFF
:101DB00098420BD0854B984208D08B4B984205D067
:101DC0008A4B984202D08A4B984201D10B7A038603
:101DD00001238382704770B5002400220023058C04
:101DE0004FF6FE7635400584028C8388048B4FF6CF
:101DF0008F752C40B51E2C400D882C43751E2A4033
:101E00000D892A434D882A436A4DA8420BD06F4D55
:101E1000A84208D0744DA84205D0744DA84202D003
:101E2000734DA84213D14FF6F7752A404D892A43C6
:101E30004FF6FB752A408D882A434FF6FF652B40ED
:101E40004FF6FF552B408D892B43CD892B43838043
:101E50000483CD888586028470BD70B5002400227D
:101E60000023058C4FF6EF7635400584028C83887D
:101E7000048B48F6FF752C404FF6FF452C400D882B
:101E80004FF6FF7606EA05252C434FF6DF752A400C
:101E90000D8906EA05152A434D8806EA05152A43E9
:101EA000444DA84202D0494DA8421DD14FF67F753E
:101EB0002A404D894FF6FF7606EA05152A434FF66C
:101EC000BF752A408D8806EA05152A434FF6FF356F
:101ED0002B404FF2FF752B408D8906EA85052B4379
:101EE000CD8906EA85052B4383800483CD88058749
:101EF000028470BD70B5002400220023058C4FF6CB
:101F0000FF6635400584028C8388848B4FF68F757D
:101F10002C404FF6FC752C400D882C434FF6FF5596
:101F20002A400D894FF6FF7606EA05252A434D889B
:101F300006EA05252A431F4DA84202D0234DA84298
:101F40001DD14FF2FF752A404D894FF6FF7606EA04
:101F500005252A434FF6FF352A408D8806EA0525D8
:101F60002A434EF6FF752B404DF6FF752B408D89A9
:101F700006EA05152B43CD8906EA05152B43838018
:101F80008483CD888587028470BD70B500220023CC
:101F90000024058C4EF6FF7635400584038C84883A
:101FA000828B48F6FF752A404FF6FF452A400D8880
:101FB00020E00000002C0140000400400008004028
:101FC000000C0040001000400014004000340140AC
:101FD000004C0140005001400054014000180040F6
:101FE000001C00400020004000400140004401402F
:101FF000004801404FF6FF7606EA05252A434DF6D4
:10200000FF752B400D8906EA05352B434D8806EAFE
:1020100005352B43FA4DA84202D0FA4DA84208D10B
:102020004BF6FF752C408D894FF6FF7606EA851535
:102030002C4384808283CD88A0F84050038470BDF7
:10204000828B4FF2FF331A408283828B4FF6FF73ED
:1020500003EA01231A4382837047F0B50C46154604
:10206000002200210026078C4EF6FF7C07EA0C07B1
:102070000784828B018C4FF6FF7707EA043640F61F
:10208000FF473A404FF6FF7707EA05273A434FF6F6
:10209000FF7707EA03373A43D94FB8420ED0D94FFA
:1020A000B8420BD0B0F1804F08D0D74FB84205D01E
:1020B000D64FB84202D0D64FB84206D14DF6FF7780
:1020C000394046F48057394305E047F6FF57394019
:1020D00044F48057394382830184F0BD828B4FF6EC
:1020E000F3731A408283828B0A4382837047F0B570
:1020F0000C461546002200210026078C4FF6FF6C87
:1021000007EA0C070784828B018C4FF6FF7707EAFA
:1021100004264FF60C773A404FF6FF7707EA03178D
:102120002F433A43B64FB8420ED0B64FB8420BD009
:10213000B0F1804F08D0B44FB84205D0B34FB84289
:1021400002D0B34FB84206D14FF6FF57394046F49C
:102150008077394305E04FF2FF57394044F48077E8
:10216000394382830184F0BD028B4FF2FF331A4062
:102170000283028B4FF6FF7303EA01231A430283A3
:102180007047F0B50C461546002200210026078C4A
:102190004FF6EF7C07EA0C070784028B018C4FF6A1
:1021A000FF7707EA041640F6FF473A404FF6FF77FD
:1021B00007EA03373A434FF6FF7707EA05273A4322
:1021C0008F4FB8420ED08F4FB8420BD0B0F1804F36
:1021D00008D08D4FB84205D08C4FB84202D08C4FFA
:1021E000B84206D14FF6DF77394046F01007394341
:1021F00005E04FF65F77394044F01007394302831A
:102200000184F0BD028B4FF6F3731A400283028BF8
:102210000A4302837047F0B50C46154600220021A0
:10222000068C4FF6FE773E400684028B018C4FF6FB
:102230000C7632407E1C06EA03162E433243704E63
:10224000B0420ED06F4EB0420BD0B0F1804F08D0EC
:102250006D4EB04205D06D4EB04202D06C4EB042D1
:1022600006D14FF6FD76314044F00106314305E0DA
:102270004FF6F576314044F0010631430283018484
:10228000F0BD70B505460C465D4885420ED05D48F0
:1022900085420BD0B5F1804F08D05B48854205D010
:1022A0005A48854202D05A48854200D100E000BF1A
:1022B000208850B92389A28861882846FFF7ABFFA0
:1022C000E1882846FFF79EFF25E0208804280AD1F0
:1022D0002389A28861882846FFF753FFE1882846B2
:1022E000FFF742FF17E0208808280AD12389A28837
:1022F00061882846FFF7FBFEE1882846FFF7EEFEDF
:1023000009E02389A28861882846FFF7A6FEE188B4
:102310002846FFF795FE70BD2DE9F04105460C46B5
:1023200000260127608808B9022600E00026A08860
:10233000012801D1022700E001272088A0B92389C4
:10234000A28861882846FFF766FFE1882846FFF7E4
:1023500059FF23893A4631462846FFF712FFE188A4
:102360002846FFF701FF13E02389A28861882846E9
:10237000FFF707FFE1882846FFF7F6FE23893A4674
:1023800031462846FFF747FFE1882846FFF73AFF26
:10239000BDE8F0810A884B881A438B881A43CB88A2
:1023A0001A430B891A434B891A438B891A43A0F8A5
:1023B000442070474FF6FF71818000210180C18069
:1023C0004180017270470021018041808180C1807D
:1023D000018141818181C18170470021018041805B
:1023E000012181800021C18001817047002101808D
:1023F00041808180C18001814181818170470000DD
:10240000002C01400034014000040040000800405E
:10241000000C004021B1028842F00102028004E079
:1024200002884FF6FE731A400280704731B1B0F84F
:10243000442042F40042A0F8442005E0B0F84420D3
:10244000C2F30E02A0F8442070471AB183890B43EF
:10245000838102E083898B43838170478182704747
:1024600041EA0203A0F8483070471AB183890B4350
:10247000838102E083898B438381704701894FF612
:10248000F8721140018170470A46002101894FF618
:102490008F73194011430181704730B504460D46D2
:1024A00029462046FFF7F0FF208940F007002081F1
:1024B00030BD2DE9F04104460D4616461F46602DFD
:1024C00006D13B46012231462046FFF75AFE05E081
:1024D0003B46012231462046FFF79DFE2946204615
:1024E000FFF7D2FF208940F007002081BDE8F0818E
:1024F00030B50C4600210189C9B24FF6FF7505EAD7
:102500000325154325432943018130BD2DE9F041C1
:1025100005460E4617469846002443463A4631463D
:102520002846FFF7E5FF2C894FF6F870044044F089
:1025300007044FF68F70044044F070042C81BDE80E
:10254000F081F0B504460D4616461F463B4632461E
:1025500029462046FFF7CCFF208940F480402081A7
:10256000F0BD0185828270470A46002101884FF63E
:102570008F731940114301807047F0B50C46154622
:102580001E460021002200230189028B038C4FF696
:10259000F877394021434FF6FC473A4040F20117A3
:1025A0003A434FF6DD773B404FF6FF7707EA0617D1
:1025B0002F433B43018102830384F0BD0A4600217F
:1025C000018B4FF68F7319401143018370470A4600
:1025D0000021018B48F6FF7319404FF6FF7303EAA1
:1025E00002231943018370470A460021818B4FF66D
:1025F0008F7319401143818370470A460021818BF4
:1026000048F6FF7319404FF6FF7303EA022319439C
:102610008183704721B1028842F08002028004E089
:1026200002884FF67F731A400280704721B182887A
:1026300042F00402828004E082884FF6FB731A4065
:102640008280704721B1828842F00802828004E0D3
:1026500082884FF6F7731A408280704721B18288D2
:1026600042F00102828004E082884FF6FE731A4035
:10267000828070470A460021018B4FF6F77319409C
:102680001143018370470A460021018B4FF2FF730B
:1026900019404FF6FF7303EA022319430183704781
:1026A0000A460021818B4FF6F7731940114381834D
:1026B00070470A460021818B4FF2FF7319404FF695
:1026C000FF7303EA02231943818370470A460021FE
:1026D000018B4FF6FB7319401143018370470A4683
:1026E0000021018B4FF6FF3319404FF6FF7303EAC9
:1026F00002231943018370470A460021818B4FF65C
:10270000FB7319401143818370470A460021818B76
:102710004FF6FF3319404FF6FF7303EA02231943C4
:10272000818370470A460021018B4FF67F73194061
:102730001143018370470A460021018BC1F30E014A
:102740004FF6FF7303EA02231943018370470A46D9
:102750000021818B4FF67F731940114381837047AD
:102760000A460021818BC1F30E014FF6FF7303EA85
:1027700002231943818370470A460021018C4FF6DA
:10278000FD7319401143018470470A460021018CF2
:102790004FF6F77319401143018470470A46002130
:1027A000018C4FF6DF7319404FF6FF7303EA0213F3
:1027B0001943018470470A460021018C4FF67F734C
:1027C00019404FF6FF7303EA02131943018470475F
:1027D0000A460021018C4FF6FF5319404FF6FF7354
:1027E00003EA02231943018470470A460021018C41
:1027F0004FF2FF7319404FF6FF7303EA02231943A8
:10280000018470470A460021018C4DF6FF73194080
:102810004FF6FF7303EA023319430184704730B562
:10282000002301248C40A3B2048C9C430484048CB8
:1028300002FA01F5ADB22C43048430BD30B500235B
:1028400004248C40A3B2048C9C430484048C02FABC
:1028500001F5ADB22C43048430BD70B503460020B1
:1028600000241846183001258D40ACB21D8CA543BC
:102870001D8409B1082909D100EB6100056825F024
:10288000700505600568154305600EE00D1FC5F372
:102890004E052844056825F4E045056005684FF6B7
:1028A000FF7606EA02263543056070BD21B1028835
:1028B00042F00202028004E002884FF6FD731A40E3
:1028C0000280704721B1028842F00402028004E0D5
:1028D00002884FF6FB731A400280704721B182884C
:1028E00042F08002828004E082884FF67F731A40B3
:1028F0008280704702884FF6F7731A400280028880
:102900000A430280704782884FF68F731A40828094
:1029100082880A438280704702894FF6F8731A4012
:10292000028102890A430281704702894FF67F7350
:102930001A40028102890A430281704781847047EC
:10294000818570478186704701877047818770470E
:10295000A0F84010704702884FF6FF431A400280EB
:1029600002880A43028070470146888E70470146FC
:10297000088F70470146888F70470146B1F84000C4
:1029800070470146888C70470146088D70470246A3
:102990000020138A0B400BB1012000E0002070479B
:1029A000CA430282704730B502460020002300244B
:1029B000158A05EA0103958905EA010413B10CB1F2
:1029C000012000E0002030BDCA43028270477047FA
:1029D0000FB41CB5074B06AA7B44694600900598C6
:1029E00000F089F90020694600F098F91CBC5DF8F8
:1029F00014FB00004103000070B5044685690068BF
:102A0000C10601D5302600E02026C00707D070BDE2
:102A1000D4E9012130469047206A401C20626D1E97
:102A2000F6D570BD70B5044685690078C00707D13A
:102A300070BDD4E9012120209047206A401C20620B
:102A40006D1EF6D570BD00002DE9F041064600244C
:102A500010687529314616A510D0AFF30080002804
:102A600002DA404213A507E031688A0701D512A5B2
:102A700002E0490704D511A5012401E0AFF300806D
:102A800000210A2206F1240709E0B0FBF2FCB0FBAA
:102A9000F2F302FB1C00303078541846491C002821
:102AA000F3D123462A463046BDE8F04100F0C5B8D0
:102AB000000000002D0000002B000000200000009E
:102AC0002DE9F0474FF0000A89460446C0F820A0DF
:102AD0002046E1688847002876D0252806D0D4E92A
:102AE00001219047206A401C2062F1E7E1682046FE
:102AF00000258847C4F81CA006460027C4F818A083
:102B00002A2E09D0304600F03DF938B304EB87088F
:102B1000303EC8F8186019E059F8041B204604EB51
:102B200087029161E1688847012F064618D1E06964
:102B3000002820DA25F020051DE0D8F8180000EB69
:102B4000800006EB40003038C8F818002046E168E5
:102B50008847064600F016F90028EED1012F0AD06A
:102B60002E2E08D12046E16888477F1C0646022F9A
:102B700045F02005C4DBA069002803DA404245F097
:102B80000105A061E80701D025F01005B6B1A6F156
:102B90004100192802D8203645F400654A463146DE
:102BA000204625604D46FDF7FDFA58B1012806D0B4
:102BB000ED1D25F0070000F1080989E704E005F1A3
:102BC000040985E730468AE7206ABDE8F08710B53A
:102BD000203AC0F00B80B1E81850203AA0E8185015
:102BE000B1E81850A0E81850BFF4F5AF5FEA027CD6
:102BF00024BFB1E81850A0E8185044BF18C918C045
:102C0000BDE810405FEA827C24BF51F8043B40F8E5
:102C1000043B08BF7047D20728BF31F8023B48BFCA
:102C200011F8012B28BF20F8023B48BF00F8012B08
:102C3000704770477047704770472DE9F0470D4661
:102C400099469246044600F124080168880604D596
:102C5000E06921F01001216000E00120A84201DDBF
:102C6000471B00E00027A1697A1902EB0900081A46
:102C7000A0612078C00602D42046FFF7BDFE0026E2
:102C800008E0D4E901211AF806009047206A401CA8
:102C9000761C20624E45F4DB2078C0060AD520461B
:102CA000FFF7AAFE06E0D4E9012130209047206A10
:102CB000401C2062381EA7F10107F4DC07E0D4E9CC
:102CC000012118F805009047206A401C2062281E48
:102CD000A5F10105F3DC2046FFF7A4FE20780006ED
:102CE00002D50220BDE8F0870120FBE701694A1CFC
:102CF00002610878704700B58FB0CDE9013100213D
:102D0000059105497944CDE9031011466846FFF75E
:102D1000D7FE0FB000BD0000E5FFFFFF0A6802F814
:102D2000010B0A607047754600F028F8AE460500B2
:102D30006946534620F00700854618B020B5FEF7D7
:102D400035F9BDE820404FF000064FF000074FF086
:102D500000084FF0000B21F00701AC46ACE8C009B9
:102D6000ACE8C009ACE8C009ACE8C0098D467047C2
:102D70000446AFF300802046FDF726FA004870476E
:102D80008805002030380A2801D201207047002031
:102D90007047000090EA010F48BF81F0004100F148
:102DA000DE81421A3CBF801A89184FEAD0524FF098
:102DB0007F4C1CEA410FA2EBD15318BF9CEA026F73
:102DC00000F03B804FF0004C4CEA00204CEA01211F
:102DD00021FA03FC10EB0C0C1ED202F1FF325FEA69
:102DE0001C2040EBC25038BF70471CF07F0F4FEAE9
:102DF000400C18BFBCF17F4F38BF7047C3F12003B0
:102E0000994008BF20F00100BCF17F4F38BF7047E8
:102E1000A0F1C04000F05BB94FEA3C00000A40EB73
:102E2000C25028BF1CF0FF0F4FEA400CE6D018BF7D
:102E3000BCF17F4F38BF7047EAE79CEA026F05D0CC
:102E400010EA5C0F08BF00F00040704710B500F0BA
:102E5000F8F800BF64FBBE3E401058BFC0F14040D0
:102E6000491058BFC1F140418142EFF300807047E3
:102E700041000B0ED3F19E0208D950F400034FEA33
:102E8000032323FA02F048BF4042704710B500F018
:102E9000D8F800BF49922480002070476FF00042AC
:102EA00082EA20007047000010F0004148BF404215
:102EB000B0FA80F310FA03F2C3F19D030BD051EA8C
:102EC000C35101EB1220530638BF704700F10100D7
:102ED00008BF20F00100704750EA010C00F1138098
:102EE0001CF5000F58BFBCF5000F01D48842704795
:102EF00007D710F5000F58BF11F5000F15D4884201
:102F00007047894270471CF5000F04D5BCF5000FCF
:102F1000F7D5814270474FF0807C1CEB400F38BFE3
:102F20001CEB410F01D28142704710B500F089F8C7
:102F3000922449004FF000504FF08051FFF78CBFB2
:102F40004FF47F0C1CEAD0121EBF1CEAD11392EA88
:102F50000C0F93EA0C0F00F0478090EA010F48BF76
:102F600042F480724FF0004C4CEA00204CEA012100
:102F700002EB0302A0FB0113A2F50002002918BF17
:102F800043F001035B0028BF4FEA330342EB2242C8
:102F90005FEA132C4CEBC2502EBFBCEB436FB2F573
:102FA0007C0F70474FEA036CBCF1004F08BF20F064
:102FB0000100B2F57C0F38BF70470BD582F0FF02DD
:102FC00012F5803FC8BF704700F1C040D8BF00F085
:102FD0000040704700F5000C5FEA4C0C48BF70479A
:102FE000B0F1C04000F073B890EA010F0CEAD113C1
:102FF00048BF42F48072624538BF634504D280EA1C
:10300000010000F00040704710B500F01AF800BF52
:103010008900013E00F007B800F009B85FEA410CF2
:103020005FEA1C6C08D080EA010000F050B85FEA4B
:10303000400C5FEA1C6CF6D14FF00040A0F5800018
:1030400070470EF1020E2EF0030E5EF8044B244280
:1030500004D44FEA4102B2F17F4F11D84FEA400346
:10306000B3F17F4F0CD80ED14FEAD07CB2F17F4F35
:103070000CEB4C0C0CF1020C08BF4CEBD17C04E0C7
:103080004FF0080C01E04FEAD17C0CEB4C0324FA22
:1030900003F404F00704B4F1040C06D20EEB840C24
:1030A000BDE810404CF0010C6047DFE80CF0070869
:1030B00002024FF00040A0F5800010BD084642001B
:1030C00018BFD2F1807288BF00F0004010BDFF2110
:1030D00041EAD050C005704751EA000C00F113805E
:1030E0001CF5000F58BFBCF5000F01D4814270479A
:1030F00007D711F5000F58BF10F5000F15D4814206
:103100007047894270471CF5000F04D5BCF5000FCD
:10311000F7D5884270474FF0807C1CEB410F38BFD9
:103120001CEB400F01D28842704780EA010081EA1F
:10313000000180EA0100FFF7F8BE80F0004090EA4D
:10314000010F7FF52EAE81F0004100F008B80000BD
:1031500090EA010F48BF81F000413FF522AE421ACC
:1031600004D882F00042A0EB020011444FEAD05292
:103170004FF07F4C1CEA410FA2EBD15318BF9CEAE1
:10318000026F4AD04FF0004C4CEA00204CEA01217B
:1031900021FA03FCB0EB0C0C0FD412F0FE0F36D06A
:1031A0005FEA4C001DD5001240EBC25038BF70479B
:1031B0001CF03F0F18BF70470BE0A2F101025FEA5D
:1031C0001C2040EBC25038BF70471CF07F0F18BF67
:1031D0007047C3F12003994014BF401E20F0010046
:1031E000704780084FEA122308BF7047B0FA80FC8E
:1031F000A2EB0C02CCF1280C60FA0CF093EA122F2F
:1032000004BF00EBC25070474FEAC3707047130A07
:103210005FEADC1008BF7047F6E79CEA026F04D053
:1032200010EA5C0F08BF0020704710B5FFF709FFD8
:1032300040DFF63E81F000407047000000000000D3
:10324000000000000000000000003F4000000000FF
:103250000000000030004000300040000000090085
:103260000BC03D000BC03D00090018C024407FE0AA
:10327000224031800000180024C01B000D80324025
:10328000018003801C4027401C8007400040100044
:1032900060000000000000000000000000000000CE
:1032A0001F80204040200000402020401F80000060
:1032B0000000090006001F8006000900000004004D
:1032C00004003F80040004000000001000600000C3
:1032D00000000000000004000400040004000400DA
:1032E000000000000040000000000000000000207E
:1032F00001C006003800400000001F802040204030
:1033000020401F800000000010403FC0004000002F
:10331000000018C0214022402440184000001080C6
:103320002040244024401B80000002000D001100BA
:103330003FC0014000003C802440244024402380C2
:1033400000001F80244024403440038000003000EF
:10335000200027C03800200000001B8024402440AB
:1033600024401B8000001C0022C0224022401F80FD
:103370000000000000000840000000000000000005
:1033800000000460000000000000000004000A00CB
:1033900011002080404009000900090009000900CF
:1033A000000000004040208011000A0004001800C6
:1033B000200023402400180000001F8020402740E8
:1033C00029401F400000004007C039000F0001C025
:1033D000004020403FC0244024401B8000001F804C
:1033E0002040204020403080000020403FC020404E
:1033F00020401F80000020403FC024402E4030C0AD
:10340000000020403FC024402E00300000000F008C
:103410001080204022403380020020403FC0040042
:1034200004003FC02040204020403FC020402040BA
:1034300000000060202020203FC02000200020400D
:103440003FC024400B0030C0204020403FC02040FF
:103450000040004000C03FC03C0003C03C003FC0F3
:10346000000020403FC00C4023003FC020001F80D0
:103470002040204020401F80000020403FC02440CA
:103480002400180000001F802140214020E01FA0E0
:10349000000020403FC02440260019C0004018C052
:1034A00024402440224031800000300020403FC0B2
:1034B00020403000000020003F80004000403F805E
:1034C000200020003E0001C0070038002000380026
:1034D00007C03C0007C038000000204039C006008B
:1034E00039C0204000002000384007C0384020008C
:1034F0000000304021C02640384020C000000000BD
:1035000000007FE0402040200000000070000C0020
:103510000380004000000000402040207FE00000C9
:10352000000000002000400020000000000000100B
:1035300000100010001000100010000000004000FB
:10354000000000000000000002800540054003C0AC
:10355000004020003FC00440044003800000000001
:103560000380044004400640000000000380044043
:1035700024403FC000400000038005400540034058
:103580000000000004401FC0244024402000000030
:1035900002E0055005500650042020403FC0044082
:1035A000040003C000400000044027C000400000A9
:1035B000000000100010041027E000000000204070
:1035C0003FC00140070004C00440204020403FC0ED
:1035D00000400040000007C0040007C0040003C012
:1035E0000000044007C00440040003C00040000085
:1035F00003800440044003800000041007F00450DE
:10360000044003800000000003800440045007F0E1
:103610000010044007C00240040004000000000045
:1036200006400540054004C00000000004001F8063
:10363000044000400000040007800040044007C030
:1036400000400400070004C00180060004000600DA
:1036500001C0070001C006000000044006C00100D0
:1036600006C0044000000410071004E001800600BA
:1036700004000000044005C00640044000000000B3
:10368000000004007BE0402000000000000000007B
:10369000FFF000000000000040207BE0040000007C
:1036A000000040008000400020002000400000009A
:1036B000000000000000000000000000000000000A
:1036C000000000001FCC000C000000000000000003
:1036D0000800300060000800300060000000022098
:1036E00003FC1E20022003FC1E200220000000001C
:1036F0000E1811043FFF10840C78000000000F002A
:1037000010840F3800C00778188400780000007813
:103710000F8410C411240E9800E4008400080800EF
:1037200068007000000000000000000000000000C1
:103730000000000007E0181820044002000000000C
:1037400040022004181807E00000000000000240BA
:10375000024001800FF00180024002400000008022
:10376000008000800FF800800080008000000001D1
:10377000000D000E0000000000000000000000002E
:1037800000800080008000800080008000800000B9
:10379000000C000C00000000000000000000000011
:1037A00000060018006001800600180020000000DC
:1037B00007F0080810041004080807F000000000D3
:1037C000080408041FFC00040004000000000000BE
:1037D0000E0C10141024104411840E0C0000000074
:1037E0000C1810041104110412880C700000000061
:1037F00000E00320042408241FFC00240000000033
:103800001F9810841104110410881070000000002B
:1038100007F00888110411041888007000000000E7
:103820001C00100010FC13001C0010000000000021
:103830000E3811441084108411440E38000000002A
:103840000700088C10441044088807F000000000AE
:1038500000000000030C030C00000000000000004A
:103860000000000101060000000000000000000050
:10387000008001400220041008081004000002200B
:10388000022002200220022002200220000000006C
:10389000100408080410022001400080000000000D
:1038A0000E001200100C106C10800F00000003E0DE
:1038B0000C1813E4142417C4082807D000000004CF
:1038C000003C03C41C40074000E4001C000410043A
:1038D0001FFC1104110411040E880070000003E0A5
:1038E0000C1810041004100410081C100000100420
:1038F0001FFC100410041004080807F00000100456
:103900001FFC1104110417C410040818000010044F
:103910001FFC1104110017C010000800000003E094
:103920000C181004100410441C780040000010040F
:103930001FFC10840080008010841FFC1004000015
:10394000100410041FFC1004100400000000000309
:103950000001100110011FFE1000100000001004F3
:103960001FFC110403801464181C100400001004D0
:103970001FFC1004000400040004000C00001004EC
:103980001FFC1F0000FC1F001FFC1004000010049F
:103990001FFC0C04030000E010181FFC100007F0CF
:1039A0000808100410041004080807F000001004B0
:1039B0001FFC10841080108010800F00000007F0A2
:1039C000081810241024101C080A07F20000100424
:1039D0001FFC1104110011C011300E0C0004000076
:1039E0000E1C11041084108410441C3800001800B0
:1039F000100010041FFC100410001800000010003C
:103A00001FF810040004000410041FF81000100038
:103A10001E0011E0001C007013801C0010001FC06D
:103A2000103C00E01F0000E0103C1FC0000010042C
:103A3000180C163401C001C01634180C1004100004
:103A40001C00130400FC13041C00100000000804F8
:103A5000101C1064108413041C04101800000000D3
:103A6000000000007FFE4002400240020000000013
:103A700030000C0003800060001C00030000000008
:103A80004002400240027FFE0000000000000000F3
:103A90000000200040004000400020000000000125
:103AA000000100010001000100010001000100000F
:103AB0004000400020000000000000000000000066
:103AC0000098012401440144014400FC000410005A
:103AD0001FFC008801040104008800700000000041
:103AE0000070008801040104010400880000000047
:103AF000007000880104010411081FFC000400008C
:103B000000F8014401440144014400C800000000E1
:103B1000010401040FFC110411041100180000003D
:103B200000D601290129012901C90106000010045C
:103B30001FFC008401000100010400FC00040000DF
:103B40000104190419FC0004000400000000000036
:103B5000000300010101190119FE0000000010041A
:103B60001FFC0024004001B4010C0104000000000F
:103B7000100410041FFC00040004000000000104F5
:103B800001FC0104010001FC0104010000FC01042E
:103B900001FC008401000100010400FC000400009D
:103BA00000F8010401040104010400F8000001010F
:103BB00001FF00850104010400880070000000007E
:103BC0000070008801040104010501FF00010104E7
:103BD000010401FC008401040100018000000000D8
:103BE00000CC0124012401240124019800000000DC
:103BF0000100010007F801040104000000000100B9
:103C000001F8000400040004010801FC00040100A4
:103C100001800170000C001001600180010001F0C2
:103C2000010C003001C00030010C01F00100000067
:103C30000104018C00740170018C01040000010179
:103C400001810171000E0018016001800100000077
:103C50000184010C013401440184010C00000000C6
:103C600000000000000001003EFC40024002000095
:103C7000000000000000FFFF000000000000000046
:103C8000400240023EFC0100000000000000000075
:103C90006000800080004000400020002000000004
:103CA000C03C0008000000205C0000006C0100081F
:103CB0001C3D00085C0000208C0B000088010008FF
:103CC00000A24A04000000000000000001020304FA
:103CD00006070809000000000000000000000000C6
:103CE00000000000000000000000000000000000D4
:103CF00000000000000000000000000000000000C4
:103D000000000000000000000000010203040102A6
:0C3D10000304060708090204060800006E
:0400000508000131BD
:00000001FF
